{
  "_format": "hh-sol-artifact-1",
  "contractName": "ERC721Raffle",
  "sourceName": "contracts/presets/ERC721Raffle.sol",
  "abi": [
    {
      "inputs": [
        {
          "internalType": "uint256",
          "name": "entryLimit_",
          "type": "uint256"
        }
      ],
      "stateMutability": "nonpayable",
      "type": "constructor"
    },
    {
      "anonymous": false,
      "inputs": [
        {
          "indexed": true,
          "internalType": "address",
          "name": "previousOwner",
          "type": "address"
        },
        {
          "indexed": true,
          "internalType": "address",
          "name": "newOwner",
          "type": "address"
        }
      ],
      "name": "OwnershipTransferred",
      "type": "event"
    },
    {
      "anonymous": false,
      "inputs": [
        {
          "indexed": true,
          "internalType": "address",
          "name": "purchaser",
          "type": "address"
        },
        {
          "indexed": false,
          "internalType": "uint256",
          "name": "quantity",
          "type": "uint256"
        }
      ],
      "name": "RaffleEntry",
      "type": "event"
    },
    {
      "anonymous": false,
      "inputs": [
        {
          "indexed": true,
          "internalType": "address",
          "name": "winner",
          "type": "address"
        }
      ],
      "name": "RaffleWinner",
      "type": "event"
    },
    {
      "inputs": [
        {
          "internalType": "uint256",
          "name": "qnty",
          "type": "uint256"
        }
      ],
      "name": "enter",
      "outputs": [],
      "stateMutability": "nonpayable",
      "type": "function"
    },
    {
      "inputs": [],
      "name": "entryCount",
      "outputs": [
        {
          "internalType": "uint256",
          "name": "",
          "type": "uint256"
        }
      ],
      "stateMutability": "view",
      "type": "function"
    },
    {
      "inputs": [],
      "name": "entryLimit",
      "outputs": [
        {
          "internalType": "uint256",
          "name": "",
          "type": "uint256"
        }
      ],
      "stateMutability": "view",
      "type": "function"
    },
    {
      "inputs": [
        {
          "internalType": "address",
          "name": "",
          "type": "address"
        },
        {
          "internalType": "address",
          "name": "",
          "type": "address"
        },
        {
          "internalType": "uint256",
          "name": "tokenId",
          "type": "uint256"
        },
        {
          "internalType": "bytes",
          "name": "",
          "type": "bytes"
        }
      ],
      "name": "onERC721Received",
      "outputs": [
        {
          "internalType": "bytes4",
          "name": "",
          "type": "bytes4"
        }
      ],
      "stateMutability": "nonpayable",
      "type": "function"
    },
    {
      "inputs": [],
      "name": "owner",
      "outputs": [
        {
          "internalType": "address",
          "name": "",
          "type": "address"
        }
      ],
      "stateMutability": "view",
      "type": "function"
    },
    {
      "inputs": [
        {
          "internalType": "uint256",
          "name": "idx",
          "type": "uint256"
        }
      ],
      "name": "pickWinner",
      "outputs": [
        {
          "internalType": "address",
          "name": "",
          "type": "address"
        }
      ],
      "stateMutability": "nonpayable",
      "type": "function"
    },
    {
      "inputs": [],
      "name": "renounceOwnership",
      "outputs": [],
      "stateMutability": "nonpayable",
      "type": "function"
    },
    {
      "inputs": [
        {
          "internalType": "address",
          "name": "newOwner",
          "type": "address"
        }
      ],
      "name": "transferOwnership",
      "outputs": [],
      "stateMutability": "nonpayable",
      "type": "function"
    }
  ],
  "bytecode": "0x60806040523480156200001157600080fd5b506040516200169438038062001694833981810160405281019062000037919062000185565b620000576200004b6200006f60201b60201c565b6200007760201b60201c565b62000068816200013b60201b60201c565b50620001b7565b600033905090565b60008060009054906101000a900473ffffffffffffffffffffffffffffffffffffffff169050816000806101000a81548173ffffffffffffffffffffffffffffffffffffffff021916908373ffffffffffffffffffffffffffffffffffffffff1602179055508173ffffffffffffffffffffffffffffffffffffffff168173ffffffffffffffffffffffffffffffffffffffff167f8be0079c531659141344cd1fd0a4f28419497f9722a3daafe3b4186f6b6457e060405160405180910390a35050565b8060058190555050565b600080fd5b6000819050919050565b6200015f816200014a565b81146200016b57600080fd5b50565b6000815190506200017f8162000154565b92915050565b6000602082840312156200019e576200019d62000145565b5b6000620001ae848285016200016e565b91505092915050565b6114cd80620001c76000396000f3fe608060405234801561001057600080fd5b50600436106100885760003560e01c80638da5cb5b1161005b5780638da5cb5b14610103578063a59f3e0c14610121578063f2fde38b1461013d578063f737d21d1461015957610088565b80630cbb0f831461008d578063150b7a02146100ab57806326b6b41b146100db578063715018a6146100f9575b600080fd5b610095610189565b6040516100a29190610ba1565b60405180910390f35b6100c560048036038101906100c09190610cb5565b610196565b6040516100d29190610d78565b60405180910390f35b6100e361035a565b6040516100f09190610ba1565b60405180910390f35b610101610360565b005b61010b610374565b6040516101189190610da2565b60405180910390f35b61013b60048036038101906101369190610dbd565b61039d565b005b61015760048036038101906101529190610dea565b6103a9565b005b610173600480360381019061016e9190610dbd565b61042c565b6040516101809190610da2565b60405180910390f35b6000600280549050905090565b60006101a061049c565b6101df576040517f08c379a00000000000000000000000000000000000000000000000000000000081526004016101d690610e9a565b60405180910390fd5b3373ffffffffffffffffffffffffffffffffffffffff16636352211e856040518263ffffffff1660e01b81526004016102189190610ba1565b602060405180830381865afa92505050801561025257506040513d601f19601f8201168201806040525081019061024f9190610ecf565b60015b610290573d8060008114610282576040519150601f19603f3d011682016040523d82523d6000602084013e610287565b606091505b50805181602001fd5b3073ffffffffffffffffffffffffffffffffffffffff168173ffffffffffffffffffffffffffffffffffffffff16146102fe576040517f08c379a00000000000000000000000000000000000000000000000000000000081526004016102f590610f94565b60405180910390fd5b5033600360006101000a81548173ffffffffffffffffffffffffffffffffffffffff021916908373ffffffffffffffffffffffffffffffffffffffff1602179055508360048190555063150b7a0260e01b905095945050505050565b60055481565b610368610504565b6103726000610582565b565b60008060009054906101000a900473ffffffffffffffffffffffffffffffffffffffff16905090565b6103a681610646565b50565b6103b1610504565b600073ffffffffffffffffffffffffffffffffffffffff168173ffffffffffffffffffffffffffffffffffffffff1603610420576040517f08c379a000000000000000000000000000000000000000000000000000000000815260040161041790611026565b60405180910390fd5b61042981610582565b50565b6000610436610504565b61043e61049c565b61047d576040517f08c379a0000000000000000000000000000000000000000000000000000000008152600401610474906110b8565b60405180910390fd5b600061048883610699565b905061049381610799565b80915050919050565b60008073ffffffffffffffffffffffffffffffffffffffff16600360009054906101000a900473ffffffffffffffffffffffffffffffffffffffff1673ffffffffffffffffffffffffffffffffffffffff16141580156104ff5750600060045414155b905090565b61050c610939565b73ffffffffffffffffffffffffffffffffffffffff1661052a610374565b73ffffffffffffffffffffffffffffffffffffffff1614610580576040517f08c379a000000000000000000000000000000000000000000000000000000000815260040161057790611124565b60405180910390fd5b565b60008060009054906101000a900473ffffffffffffffffffffffffffffffffffffffff169050816000806101000a81548173ffffffffffffffffffffffffffffffffffffffff021916908373ffffffffffffffffffffffffffffffffffffffff1602179055508173ffffffffffffffffffffffffffffffffffffffff168173ffffffffffffffffffffffffffffffffffffffff167f8be0079c531659141344cd1fd0a4f28419497f9722a3daafe3b4186f6b6457e060405160405180910390a35050565b61064e61049c565b61068d576040517f08c379a0000000000000000000000000000000000000000000000000000000008152600401610684906111b6565b60405180910390fd5b61069681610941565b50565b60008082101580156106af575060028054905082105b6106ee576040517f08c379a00000000000000000000000000000000000000000000000000000000081526004016106e590611222565b60405180910390fd5b60006002838154811061070457610703611242565b5b906000526020600020016040518060200160405290816000820160009054906101000a900473ffffffffffffffffffffffffffffffffffffffff1673ffffffffffffffffffffffffffffffffffffffff1673ffffffffffffffffffffffffffffffffffffffff168152505090506002600061077f9190610b29565b61078c81600001516109de565b8060000151915050919050565b6000600454036107de576040517f08c379a00000000000000000000000000000000000000000000000000000000081526004016107d5906112bd565b60405180910390fd5b600073ffffffffffffffffffffffffffffffffffffffff168173ffffffffffffffffffffffffffffffffffffffff160361084d576040517f08c379a000000000000000000000000000000000000000000000000000000000815260040161084490611329565b60405180910390fd5b6000600360009054906101000a900473ffffffffffffffffffffffffffffffffffffffff169050600060045490506000600360006101000a81548173ffffffffffffffffffffffffffffffffffffffff021916908373ffffffffffffffffffffffffffffffffffffffff16021790555060006004819055508173ffffffffffffffffffffffffffffffffffffffff166342842e0e3385846040518463ffffffff1660e01b815260040161090293929190611349565b600060405180830381600087803b15801561091c57600080fd5b505af1158015610930573d6000803e3d6000fd5b50505050505050565b600033905090565b8060055481600660003373ffffffffffffffffffffffffffffffffffffffff1673ffffffffffffffffffffffffffffffffffffffff1681526020019081526020016000205461099091906113af565b11156109d1576040517f08c379a00000000000000000000000000000000000000000000000000000000081526004016109c89061142f565b60405180910390fd5b6109da82610a24565b5050565b8073ffffffffffffffffffffffffffffffffffffffff167f16d6ae18ca26331fba5a8b53b0749a009d33b172b68a49d64a767782f5b6010360405160405180910390a250565b60005b81811015610ad757600260405180602001604052803373ffffffffffffffffffffffffffffffffffffffff168152509080600181540180825580915050600190039060005260206000200160009091909190915060008201518160000160006101000a81548173ffffffffffffffffffffffffffffffffffffffff021916908373ffffffffffffffffffffffffffffffffffffffff16021790555050508080610acf9061144f565b915050610a27565b503373ffffffffffffffffffffffffffffffffffffffff167f412ce78c3d80a4d700404d6b23bd33bc193f83ac3caeefb9cdd3003aceb09f6a82604051610b1e9190610ba1565b60405180910390a250565b5080546000825590600052602060002090810190610b479190610b4a565b50565b5b80821115610b8457600080820160006101000a81549073ffffffffffffffffffffffffffffffffffffffff021916905550600101610b4b565b5090565b6000819050919050565b610b9b81610b88565b82525050565b6000602082019050610bb66000830184610b92565b92915050565b600080fd5b600080fd5b600073ffffffffffffffffffffffffffffffffffffffff82169050919050565b6000610bf182610bc6565b9050919050565b610c0181610be6565b8114610c0c57600080fd5b50565b600081359050610c1e81610bf8565b92915050565b610c2d81610b88565b8114610c3857600080fd5b50565b600081359050610c4a81610c24565b92915050565b600080fd5b600080fd5b600080fd5b60008083601f840112610c7557610c74610c50565b5b8235905067ffffffffffffffff811115610c9257610c91610c55565b5b602083019150836001820283011115610cae57610cad610c5a565b5b9250929050565b600080600080600060808688031215610cd157610cd0610bbc565b5b6000610cdf88828901610c0f565b9550506020610cf088828901610c0f565b9450506040610d0188828901610c3b565b935050606086013567ffffffffffffffff811115610d2257610d21610bc1565b5b610d2e88828901610c5f565b92509250509295509295909350565b60007fffffffff0000000000000000000000000000000000000000000000000000000082169050919050565b610d7281610d3d565b82525050565b6000602082019050610d8d6000830184610d69565b92915050565b610d9c81610be6565b82525050565b6000602082019050610db76000830184610d93565b92915050565b600060208284031215610dd357610dd2610bbc565b5b6000610de184828501610c3b565b91505092915050565b600060208284031215610e0057610dff610bbc565b5b6000610e0e84828501610c0f565b91505092915050565b600082825260208201905092915050565b7f61207072697a6520697320616c726561647920617661696c61626c6520666f7260008201527f207468697320726166666c650000000000000000000000000000000000000000602082015250565b6000610e84602c83610e17565b9150610e8f82610e28565b604082019050919050565b60006020820190508181036000830152610eb381610e77565b9050919050565b600081519050610ec981610bf8565b92915050565b600060208284031215610ee557610ee4610bbc565b5b6000610ef384828501610eba565b91505092915050565b7f73656e64696e6720636f6e747261637420646f6573206e6f7420696e6469636160008201527f74652074686174206e6577206f776e657220616e64207468697320636f6e747260208201527f616374206d617463680000000000000000000000000000000000000000000000604082015250565b6000610f7e604983610e17565b9150610f8982610efc565b606082019050919050565b60006020820190508181036000830152610fad81610f71565b9050919050565b7f4f776e61626c653a206e6577206f776e657220697320746865207a65726f206160008201527f6464726573730000000000000000000000000000000000000000000000000000602082015250565b6000611010602683610e17565b915061101b82610fb4565b604082019050919050565b6000602082019050818103600083015261103f81611003565b9050919050565b7f63616e6e6f74207069636b2077696e6e6572207768656e206e6f207072697a6560008201527f20697320617661696c61626c6500000000000000000000000000000000000000602082015250565b60006110a2602d83610e17565b91506110ad82611046565b604082019050919050565b600060208201905081810360008301526110d181611095565b9050919050565b7f4f776e61626c653a2063616c6c6572206973206e6f7420746865206f776e6572600082015250565b600061110e602083610e17565b9150611119826110d8565b602082019050919050565b6000602082019050818103600083015261113d81611101565b9050919050565b7f63616e6e6f7420656e746572207768656e206e6f207072697a6520697320617660008201527f61696c61626c6500000000000000000000000000000000000000000000000000602082015250565b60006111a0602783610e17565b91506111ab82611144565b604082019050919050565b600060208201905081810360008301526111cf81611193565b9050919050565b7f77696e6e6572206f7574206f6620626f756e6473000000000000000000000000600082015250565b600061120c601483610e17565b9150611217826111d6565b602082019050919050565b6000602082019050818103600083015261123b816111ff565b9050919050565b7f4e487b7100000000000000000000000000000000000000000000000000000000600052603260045260246000fd5b7f6e6f20746f6b656e20746f207472616e73666572000000000000000000000000600082015250565b60006112a7601483610e17565b91506112b282611271565b602082019050919050565b600060208201905081810360008301526112d68161129a565b9050919050565b7f63616e6e6f742073656e6420746f20746865207a65726f206164647265737300600082015250565b6000611313601f83610e17565b915061131e826112dd565b602082019050919050565b6000602082019050818103600083015261134281611306565b9050919050565b600060608201905061135e6000830186610d93565b61136b6020830185610d93565b6113786040830184610b92565b949350505050565b7f4e487b7100000000000000000000000000000000000000000000000000000000600052601160045260246000fd5b60006113ba82610b88565b91506113c583610b88565b92508282019050808211156113dd576113dc611380565b5b92915050565b7f656e7472696573206c696d697465640000000000000000000000000000000000600082015250565b6000611419600f83610e17565b9150611424826113e3565b602082019050919050565b600060208201905081810360008301526114488161140c565b9050919050565b600061145a82610b88565b91507fffffffffffffffffffffffffffffffffffffffffffffffffffffffffffffffff820361148c5761148b611380565b5b60018201905091905056fea26469706673582212209170e755034c3007c02b6314b87025504bc99c91c2595db2e7596b5a27b491d064736f6c63430008100033",
  "linkReferences": {},
  "deployedLinkReferences": {}
}