{
  "_format": "hh-sol-artifact-1",
  "contractName": "SimpleRaffle",
  "sourceName": "contracts/presets/SimpleRaffle.sol",
  "abi": [
    {
      "inputs": [
        {
          "internalType": "uint256",
          "name": "entryCost_",
          "type": "uint256"
        }
      ],
      "stateMutability": "nonpayable",
      "type": "constructor"
    },
    {
      "anonymous": false,
      "inputs": [
        {
          "indexed": true,
          "internalType": "address",
          "name": "previousOwner",
          "type": "address"
        },
        {
          "indexed": true,
          "internalType": "address",
          "name": "newOwner",
          "type": "address"
        }
      ],
      "name": "OwnershipTransferred",
      "type": "event"
    },
    {
      "anonymous": false,
      "inputs": [
        {
          "indexed": true,
          "internalType": "address",
          "name": "purchaser",
          "type": "address"
        },
        {
          "indexed": false,
          "internalType": "uint256",
          "name": "quantity",
          "type": "uint256"
        }
      ],
      "name": "RaffleEntry",
      "type": "event"
    },
    {
      "anonymous": false,
      "inputs": [
        {
          "indexed": true,
          "internalType": "address",
          "name": "winner",
          "type": "address"
        }
      ],
      "name": "RaffleWinner",
      "type": "event"
    },
    {
      "stateMutability": "payable",
      "type": "fallback"
    },
    {
      "inputs": [],
      "name": "balance",
      "outputs": [
        {
          "internalType": "uint256",
          "name": "",
          "type": "uint256"
        }
      ],
      "stateMutability": "view",
      "type": "function"
    },
    {
      "inputs": [
        {
          "internalType": "uint256",
          "name": "qnty",
          "type": "uint256"
        }
      ],
      "name": "enter",
      "outputs": [],
      "stateMutability": "payable",
      "type": "function"
    },
    {
      "inputs": [],
      "name": "entryCount",
      "outputs": [
        {
          "internalType": "uint256",
          "name": "",
          "type": "uint256"
        }
      ],
      "stateMutability": "view",
      "type": "function"
    },
    {
      "inputs": [],
      "name": "owner",
      "outputs": [
        {
          "internalType": "address",
          "name": "",
          "type": "address"
        }
      ],
      "stateMutability": "view",
      "type": "function"
    },
    {
      "inputs": [
        {
          "internalType": "uint256",
          "name": "idx",
          "type": "uint256"
        }
      ],
      "name": "pickWinner",
      "outputs": [
        {
          "internalType": "address",
          "name": "",
          "type": "address"
        }
      ],
      "stateMutability": "nonpayable",
      "type": "function"
    },
    {
      "inputs": [],
      "name": "price",
      "outputs": [
        {
          "internalType": "uint256",
          "name": "",
          "type": "uint256"
        }
      ],
      "stateMutability": "view",
      "type": "function"
    },
    {
      "inputs": [],
      "name": "renounceOwnership",
      "outputs": [],
      "stateMutability": "nonpayable",
      "type": "function"
    },
    {
      "inputs": [
        {
          "internalType": "address",
          "name": "newOwner",
          "type": "address"
        }
      ],
      "name": "transferOwnership",
      "outputs": [],
      "stateMutability": "nonpayable",
      "type": "function"
    },
    {
      "stateMutability": "payable",
      "type": "receive"
    }
  ],
  "bytecode": "0x608060405234801561001057600080fd5b50604051610e2d380380610e2d83398181016040528101906100329190610162565b61004e61004361005b60201b60201c565b61006360201b60201c565b806004819055505061018f565b600033905090565b60008060009054906101000a900473ffffffffffffffffffffffffffffffffffffffff169050816000806101000a81548173ffffffffffffffffffffffffffffffffffffffff021916908373ffffffffffffffffffffffffffffffffffffffff1602179055508173ffffffffffffffffffffffffffffffffffffffff168173ffffffffffffffffffffffffffffffffffffffff167f8be0079c531659141344cd1fd0a4f28419497f9722a3daafe3b4186f6b6457e060405160405180910390a35050565b600080fd5b6000819050919050565b61013f8161012c565b811461014a57600080fd5b50565b60008151905061015c81610136565b92915050565b60006020828403121561017857610177610127565b5b60006101868482850161014d565b91505092915050565b610c8f8061019e6000396000f3fe60806040526004361061007f5760003560e01c8063a59f3e0c1161004e578063a59f3e0c14610134578063b69ef8a814610150578063f2fde38b1461017b578063f737d21d146101a457610090565b80630cbb0f831461009c578063715018a6146100c75780638da5cb5b146100de578063a035b1fe1461010957610090565b366100905761008e60016101e1565b005b61009a60016101e1565b005b3480156100a857600080fd5b506100b16101f6565b6040516100be91906107ea565b60405180910390f35b3480156100d357600080fd5b506100dc610203565b005b3480156100ea57600080fd5b506100f3610217565b6040516101009190610846565b60405180910390f35b34801561011557600080fd5b5061011e610240565b60405161012b91906107ea565b60405180910390f35b61014e60048036038101906101499190610892565b610246565b005b34801561015c57600080fd5b50610165610252565b60405161017291906107ea565b60405180910390f35b34801561018757600080fd5b506101a2600480360381019061019d91906108eb565b610258565b005b3480156101b057600080fd5b506101cb60048036038101906101c69190610892565b6102db565b6040516101d89190610846565b60405180910390f35b6101ea81610304565b6101f38161036f565b50565b6000600280549050905090565b61020b610474565b61021560006104f2565b565b60008060009054906101000a900473ffffffffffffffffffffffffffffffffffffffff16905090565b60045481565b61024f816101e1565b50565b60035481565b610260610474565b600073ffffffffffffffffffffffffffffffffffffffff168173ffffffffffffffffffffffffffffffffffffffff16036102cf576040517f08c379a00000000000000000000000000000000000000000000000000000000081526004016102c69061099b565b60405180910390fd5b6102d8816104f2565b50565b60006102e5610474565b60006102f0836105b6565b90506102fb816106b6565b80915050919050565b6004548161031291906109ea565b3414610353576040517f08c379a000000000000000000000000000000000000000000000000000000000815260040161034a90610ab6565b60405180910390fd5b34600360008282546103659190610ad6565b9250508190555050565b60005b8181101561042257600260405180602001604052803373ffffffffffffffffffffffffffffffffffffffff168152509080600181540180825580915050600190039060005260206000200160009091909190915060008201518160000160006101000a81548173ffffffffffffffffffffffffffffffffffffffff021916908373ffffffffffffffffffffffffffffffffffffffff1602179055505050808061041a90610b0a565b915050610372565b503373ffffffffffffffffffffffffffffffffffffffff167f412ce78c3d80a4d700404d6b23bd33bc193f83ac3caeefb9cdd3003aceb09f6a8260405161046991906107ea565b60405180910390a250565b61047c610720565b73ffffffffffffffffffffffffffffffffffffffff1661049a610217565b73ffffffffffffffffffffffffffffffffffffffff16146104f0576040517f08c379a00000000000000000000000000000000000000000000000000000000081526004016104e790610b9e565b60405180910390fd5b565b60008060009054906101000a900473ffffffffffffffffffffffffffffffffffffffff169050816000806101000a81548173ffffffffffffffffffffffffffffffffffffffff021916908373ffffffffffffffffffffffffffffffffffffffff1602179055508173ffffffffffffffffffffffffffffffffffffffff168173ffffffffffffffffffffffffffffffffffffffff167f8be0079c531659141344cd1fd0a4f28419497f9722a3daafe3b4186f6b6457e060405160405180910390a35050565b60008082101580156105cc575060028054905082105b61060b576040517f08c379a000000000000000000000000000000000000000000000000000000000815260040161060290610c0a565b60405180910390fd5b60006002838154811061062157610620610c2a565b5b906000526020600020016040518060200160405290816000820160009054906101000a900473ffffffffffffffffffffffffffffffffffffffff1673ffffffffffffffffffffffffffffffffffffffff1673ffffffffffffffffffffffffffffffffffffffff168152505090506002600061069c9190610772565b6106a98160000151610728565b8060000151915050919050565b6106be61076e565b6000600354905060006003819055508173ffffffffffffffffffffffffffffffffffffffff166108fc829081150290604051600060405180830381858888f19350505050158015610713573d6000803e3d6000fd5b5061071c610770565b5050565b600033905090565b8073ffffffffffffffffffffffffffffffffffffffff167f16d6ae18ca26331fba5a8b53b0749a009d33b172b68a49d64a767782f5b6010360405160405180910390a250565b565b565b50805460008255906000526020600020908101906107909190610793565b50565b5b808211156107cd57600080820160006101000a81549073ffffffffffffffffffffffffffffffffffffffff021916905550600101610794565b5090565b6000819050919050565b6107e4816107d1565b82525050565b60006020820190506107ff60008301846107db565b92915050565b600073ffffffffffffffffffffffffffffffffffffffff82169050919050565b600061083082610805565b9050919050565b61084081610825565b82525050565b600060208201905061085b6000830184610837565b92915050565b600080fd5b61086f816107d1565b811461087a57600080fd5b50565b60008135905061088c81610866565b92915050565b6000602082840312156108a8576108a7610861565b5b60006108b68482850161087d565b91505092915050565b6108c881610825565b81146108d357600080fd5b50565b6000813590506108e5816108bf565b92915050565b60006020828403121561090157610900610861565b5b600061090f848285016108d6565b91505092915050565b600082825260208201905092915050565b7f4f776e61626c653a206e6577206f776e657220697320746865207a65726f206160008201527f6464726573730000000000000000000000000000000000000000000000000000602082015250565b6000610985602683610918565b915061099082610929565b604082019050919050565b600060208201905081810360008301526109b481610978565b9050919050565b7f4e487b7100000000000000000000000000000000000000000000000000000000600052601160045260246000fd5b60006109f5826107d1565b9150610a00836107d1565b9250817fffffffffffffffffffffffffffffffffffffffffffffffffffffffffffffffff0483118215151615610a3957610a386109bb565b5b828202905092915050565b7f616d6f756e742073656e74206d757374206d61746368207175616e746974792060008201527f74696d6573207072696365000000000000000000000000000000000000000000602082015250565b6000610aa0602b83610918565b9150610aab82610a44565b604082019050919050565b60006020820190508181036000830152610acf81610a93565b9050919050565b6000610ae1826107d1565b9150610aec836107d1565b9250828201905080821115610b0457610b036109bb565b5b92915050565b6000610b15826107d1565b91507fffffffffffffffffffffffffffffffffffffffffffffffffffffffffffffffff8203610b4757610b466109bb565b5b600182019050919050565b7f4f776e61626c653a2063616c6c6572206973206e6f7420746865206f776e6572600082015250565b6000610b88602083610918565b9150610b9382610b52565b602082019050919050565b60006020820190508181036000830152610bb781610b7b565b9050919050565b7f77696e6e6572206f7574206f6620626f756e6473000000000000000000000000600082015250565b6000610bf4601483610918565b9150610bff82610bbe565b602082019050919050565b60006020820190508181036000830152610c2381610be7565b9050919050565b7f4e487b7100000000000000000000000000000000000000000000000000000000600052603260045260246000fdfea26469706673582212205ff5faf4bb5a97ca6408e7bb28ca41245ed21375df1d0e185a21fe3cef58da2b64736f6c63430008100033",
  "linkReferences": {},
  "deployedLinkReferences": {}
}