{
  "_format": "hh-sol-artifact-1",
  "contractName": "AutomatedVRFRaffle",
  "sourceName": "contracts/presets/AutomatedVRFRaffle.sol",
  "abi": [
    {
      "inputs": [
        {
          "internalType": "uint256",
          "name": "raffleInterval_",
          "type": "uint256"
        },
        {
          "internalType": "uint256",
          "name": "entryCost_",
          "type": "uint256"
        },
        {
          "internalType": "uint64",
          "name": "subscriptionId_",
          "type": "uint64"
        },
        {
          "internalType": "address",
          "name": "vrfCoordinator_",
          "type": "address"
        },
        {
          "internalType": "bytes32",
          "name": "gasLane_",
          "type": "bytes32"
        }
      ],
      "stateMutability": "nonpayable",
      "type": "constructor"
    },
    {
      "inputs": [
        {
          "internalType": "address",
          "name": "have",
          "type": "address"
        },
        {
          "internalType": "address",
          "name": "want",
          "type": "address"
        }
      ],
      "name": "OnlyCoordinatorCanFulfill",
      "type": "error"
    },
    {
      "anonymous": false,
      "inputs": [
        {
          "indexed": true,
          "internalType": "address",
          "name": "previousOwner",
          "type": "address"
        },
        {
          "indexed": true,
          "internalType": "address",
          "name": "newOwner",
          "type": "address"
        }
      ],
      "name": "OwnershipTransferred",
      "type": "event"
    },
    {
      "anonymous": false,
      "inputs": [
        {
          "indexed": true,
          "internalType": "address",
          "name": "purchaser",
          "type": "address"
        },
        {
          "indexed": false,
          "internalType": "uint256",
          "name": "quantity",
          "type": "uint256"
        }
      ],
      "name": "RaffleEntry",
      "type": "event"
    },
    {
      "anonymous": false,
      "inputs": [
        {
          "indexed": true,
          "internalType": "address",
          "name": "winner",
          "type": "address"
        }
      ],
      "name": "RaffleWinner",
      "type": "event"
    },
    {
      "stateMutability": "payable",
      "type": "fallback"
    },
    {
      "inputs": [],
      "name": "balance",
      "outputs": [
        {
          "internalType": "uint256",
          "name": "",
          "type": "uint256"
        }
      ],
      "stateMutability": "view",
      "type": "function"
    },
    {
      "inputs": [],
      "name": "callbackGasLimit",
      "outputs": [
        {
          "internalType": "uint32",
          "name": "",
          "type": "uint32"
        }
      ],
      "stateMutability": "view",
      "type": "function"
    },
    {
      "inputs": [
        {
          "internalType": "bytes",
          "name": "",
          "type": "bytes"
        }
      ],
      "name": "checkUpkeep",
      "outputs": [
        {
          "internalType": "bool",
          "name": "upkeepNeeded",
          "type": "bool"
        },
        {
          "internalType": "bytes",
          "name": "",
          "type": "bytes"
        }
      ],
      "stateMutability": "view",
      "type": "function"
    },
    {
      "inputs": [
        {
          "internalType": "uint256",
          "name": "qnty",
          "type": "uint256"
        }
      ],
      "name": "enter",
      "outputs": [],
      "stateMutability": "payable",
      "type": "function"
    },
    {
      "inputs": [],
      "name": "entryCount",
      "outputs": [
        {
          "internalType": "uint256",
          "name": "",
          "type": "uint256"
        }
      ],
      "stateMutability": "view",
      "type": "function"
    },
    {
      "inputs": [],
      "name": "gasLane",
      "outputs": [
        {
          "internalType": "bytes32",
          "name": "",
          "type": "bytes32"
        }
      ],
      "stateMutability": "view",
      "type": "function"
    },
    {
      "inputs": [],
      "name": "interval",
      "outputs": [
        {
          "internalType": "uint256",
          "name": "",
          "type": "uint256"
        }
      ],
      "stateMutability": "view",
      "type": "function"
    },
    {
      "inputs": [],
      "name": "lastRafflePick",
      "outputs": [
        {
          "internalType": "uint256",
          "name": "",
          "type": "uint256"
        }
      ],
      "stateMutability": "view",
      "type": "function"
    },
    {
      "inputs": [],
      "name": "owner",
      "outputs": [
        {
          "internalType": "address",
          "name": "",
          "type": "address"
        }
      ],
      "stateMutability": "view",
      "type": "function"
    },
    {
      "inputs": [
        {
          "internalType": "bytes",
          "name": "",
          "type": "bytes"
        }
      ],
      "name": "performUpkeep",
      "outputs": [],
      "stateMutability": "nonpayable",
      "type": "function"
    },
    {
      "inputs": [],
      "name": "price",
      "outputs": [
        {
          "internalType": "uint256",
          "name": "",
          "type": "uint256"
        }
      ],
      "stateMutability": "view",
      "type": "function"
    },
    {
      "inputs": [
        {
          "internalType": "uint256",
          "name": "",
          "type": "uint256"
        }
      ],
      "name": "randomWords",
      "outputs": [
        {
          "internalType": "uint256",
          "name": "",
          "type": "uint256"
        }
      ],
      "stateMutability": "view",
      "type": "function"
    },
    {
      "inputs": [
        {
          "internalType": "uint256",
          "name": "requestId",
          "type": "uint256"
        },
        {
          "internalType": "uint256[]",
          "name": "randomWords",
          "type": "uint256[]"
        }
      ],
      "name": "rawFulfillRandomWords",
      "outputs": [],
      "stateMutability": "nonpayable",
      "type": "function"
    },
    {
      "inputs": [],
      "name": "renounceOwnership",
      "outputs": [],
      "stateMutability": "nonpayable",
      "type": "function"
    },
    {
      "inputs": [],
      "name": "requestConfirmations",
      "outputs": [
        {
          "internalType": "uint16",
          "name": "",
          "type": "uint16"
        }
      ],
      "stateMutability": "view",
      "type": "function"
    },
    {
      "inputs": [],
      "name": "requestId",
      "outputs": [
        {
          "internalType": "uint256",
          "name": "",
          "type": "uint256"
        }
      ],
      "stateMutability": "view",
      "type": "function"
    },
    {
      "inputs": [
        {
          "internalType": "address",
          "name": "newOwner",
          "type": "address"
        }
      ],
      "name": "transferOwnership",
      "outputs": [],
      "stateMutability": "nonpayable",
      "type": "function"
    },
    {
      "inputs": [],
      "name": "vrfCoordinator",
      "outputs": [
        {
          "internalType": "address",
          "name": "",
          "type": "address"
        }
      ],
      "stateMutability": "view",
      "type": "function"
    },
    {
      "stateMutability": "payable",
      "type": "receive"
    }
  ],
  "bytecode": "0x60a060405260016005601c6101000a81548163ffffffff021916908363ffffffff1602179055506003600960006101000a81548161ffff021916908361ffff160217905550620186a0600960026101000a81548163ffffffff021916908363ffffffff1602179055503480156200007557600080fd5b5060405162001b1538038062001b1583398181016040528101906200009b919062000386565b82828281620000bf620000b36200018b60201b60201c565b6200019360201b60201c565b8073ffffffffffffffffffffffffffffffffffffffff1660808173ffffffffffffffffffffffffffffffffffffffff16815250505082600560146101000a81548167ffffffffffffffff021916908367ffffffffffffffff16021790555081600760006101000a81548173ffffffffffffffffffffffffffffffffffffffff021916908373ffffffffffffffffffffffffffffffffffffffff160217905550806008819055505050508360048190555062000180856200025760201b60201c565b50505050506200040e565b600033905090565b60008060009054906101000a900473ffffffffffffffffffffffffffffffffffffffff169050816000806101000a81548173ffffffffffffffffffffffffffffffffffffffff021916908373ffffffffffffffffffffffffffffffffffffffff1602179055508173ffffffffffffffffffffffffffffffffffffffff168173ffffffffffffffffffffffffffffffffffffffff167f8be0079c531659141344cd1fd0a4f28419497f9722a3daafe3b4186f6b6457e060405160405180910390a35050565b80600b8190555050565b600080fd5b6000819050919050565b6200027b8162000266565b81146200028757600080fd5b50565b6000815190506200029b8162000270565b92915050565b600067ffffffffffffffff82169050919050565b620002c081620002a1565b8114620002cc57600080fd5b50565b600081519050620002e081620002b5565b92915050565b600073ffffffffffffffffffffffffffffffffffffffff82169050919050565b60006200031382620002e6565b9050919050565b620003258162000306565b81146200033157600080fd5b50565b60008151905062000345816200031a565b92915050565b6000819050919050565b62000360816200034b565b81146200036c57600080fd5b50565b600081519050620003808162000355565b92915050565b600080600080600060a08688031215620003a557620003a462000261565b5b6000620003b5888289016200028a565b9550506020620003c8888289016200028a565b9450506040620003db88828901620002cf565b9350506060620003ee8882890162000334565b925050608062000401888289016200036f565b9150509295509295909350565b6080516116e4620004316000396000818161045501526104a901526116e46000f3fe60806040526004361061010c5760003560e01c8063a035b1fe11610095578063b0fb162f11610064578063b0fb162f14610344578063b69ef8a81461036f578063beff730f1461039a578063ddb6facc146103d7578063f2fde38b146104025761011d565b8063a035b1fe146102a7578063a3e56fa8146102d2578063a59f3e0c146102fd578063a6226e8e146103195761011d565b80634585e33b116100dc5780634585e33b146101d35780636e04ff0d146101fc578063715018a61461023a5780638da5cb5b14610251578063947a36fb1461027c5761011d565b80626d6cae146101295780630cbb0f83146101545780631fe543e31461017f57806324f74697146101a85761011d565b3661011d5761011b600161042b565b005b610127600161042b565b005b34801561013557600080fd5b5061013e610440565b60405161014b9190610d4e565b60405180910390f35b34801561016057600080fd5b50610169610446565b6040516101769190610d4e565b60405180910390f35b34801561018b57600080fd5b506101a660048036038101906101a19190610f02565b610453565b005b3480156101b457600080fd5b506101bd610513565b6040516101ca9190610f7d565b60405180910390f35b3480156101df57600080fd5b506101fa60048036038101906101f59190610ff3565b610529565b005b34801561020857600080fd5b50610223600480360381019061021e9190610ff3565b610543565b6040516102319291906110da565b60405180910390f35b34801561024657600080fd5b5061024f610558565b005b34801561025d57600080fd5b5061026661056c565b604051610273919061114b565b60405180910390f35b34801561028857600080fd5b50610291610595565b60405161029e9190610d4e565b60405180910390f35b3480156102b357600080fd5b506102bc61059b565b6040516102c99190610d4e565b60405180910390f35b3480156102de57600080fd5b506102e76105a1565b6040516102f4919061114b565b60405180910390f35b61031760048036038101906103129190611166565b6105c7565b005b34801561032557600080fd5b5061032e6105d3565b60405161033b9190610d4e565b60405180910390f35b34801561035057600080fd5b506103596105d9565b60405161036691906111b0565b60405180910390f35b34801561037b57600080fd5b506103846105ed565b6040516103919190610d4e565b60405180910390f35b3480156103a657600080fd5b506103c160048036038101906103bc9190611166565b6105f3565b6040516103ce9190610d4e565b60405180910390f35b3480156103e357600080fd5b506103ec610617565b6040516103f991906111e4565b60405180910390f35b34801561040e57600080fd5b506104296004803603810190610424919061122b565b61061d565b005b610434816106a0565b61043d8161070b565b50565b60065481565b6000600280549050905090565b7f000000000000000000000000000000000000000000000000000000000000000073ffffffffffffffffffffffffffffffffffffffff163373ffffffffffffffffffffffffffffffffffffffff161461050557337f00000000000000000000000000000000000000000000000000000000000000006040517f1cf993f40000000000000000000000000000000000000000000000000000000081526004016104fc929190611258565b60405180910390fd5b61050f8282610810565b5050565b600960029054906101000a900463ffffffff1681565b610531610837565b1561053f5761053e610850565b5b5050565b6000606061054f610837565b91509250929050565b61056061085a565b61056a60006108d8565b565b60008060009054906101000a900473ffffffffffffffffffffffffffffffffffffffff16905090565b600b5481565b60045481565b600760009054906101000a900473ffffffffffffffffffffffffffffffffffffffff1681565b6105d08161042b565b50565b600c5481565b600960009054906101000a900461ffff1681565b60035481565b600a818154811061060357600080fd5b906000526020600020016000915090505481565b60085481565b61062561085a565b600073ffffffffffffffffffffffffffffffffffffffff168173ffffffffffffffffffffffffffffffffffffffff1603610694576040517f08c379a000000000000000000000000000000000000000000000000000000000815260040161068b90611304565b60405180910390fd5b61069d816108d8565b50565b600454816106ae9190611353565b34146106ef576040517f08c379a00000000000000000000000000000000000000000000000000000000081526004016106e69061141f565b60405180910390fd5b3460036000828254610701919061143f565b9250508190555050565b60005b818110156107be57600260405180602001604052803373ffffffffffffffffffffffffffffffffffffffff168152509080600181540180825580915050600190039060005260206000200160009091909190915060008201518160000160006101000a81548173ffffffffffffffffffffffffffffffffffffffff021916908373ffffffffffffffffffffffffffffffffffffffff160217905550505080806107b690611473565b91505061070e565b503373ffffffffffffffffffffffffffffffffffffffff167f412ce78c3d80a4d700404d6b23bd33bc193f83ac3caeefb9cdd3003aceb09f6a826040516108059190610d4e565b60405180910390a250565b80600a9080519060200190610826929190610c6c565b5060006108328161099c565b505050565b6000600b54600c544261084a91906114bb565b11905090565b6108586109b6565b565b610862610ab0565b73ffffffffffffffffffffffffffffffffffffffff1661088061056c565b73ffffffffffffffffffffffffffffffffffffffff16146108d6576040517f08c379a00000000000000000000000000000000000000000000000000000000081526004016108cd9061153b565b60405180910390fd5b565b60008060009054906101000a900473ffffffffffffffffffffffffffffffffffffffff169050816000806101000a81548173ffffffffffffffffffffffffffffffffffffffff021916908373ffffffffffffffffffffffffffffffffffffffff1602179055508173ffffffffffffffffffffffffffffffffffffffff168173ffffffffffffffffffffffffffffffffffffffff167f8be0079c531659141344cd1fd0a4f28419497f9722a3daafe3b4186f6b6457e060405160405180910390a35050565b60006109a782610ab8565b90506109b281610bb8565b5050565b600560009054906101000a900473ffffffffffffffffffffffffffffffffffffffff1673ffffffffffffffffffffffffffffffffffffffff16635d3b1d30600854600560149054906101000a900467ffffffffffffffff16600960009054906101000a900461ffff16600960029054906101000a900463ffffffff166005601c9054906101000a900463ffffffff166040518663ffffffff1660e01b8152600401610a6595949392919061157e565b6020604051808303816000875af1158015610a84573d6000803e3d6000fd5b505050506040513d601f19601f82011682018060405250810190610aa891906115e6565b600681905550565b600033905090565b6000808210158015610ace575060028054905082105b610b0d576040517f08c379a0000000000000000000000000000000000000000000000000000000008152600401610b049061165f565b60405180910390fd5b600060028381548110610b2357610b2261167f565b5b906000526020600020016040518060200160405290816000820160009054906101000a900473ffffffffffffffffffffffffffffffffffffffff1673ffffffffffffffffffffffffffffffffffffffff1673ffffffffffffffffffffffffffffffffffffffff1681525050905060026000610b9e9190610cb9565b610bab8160000151610c22565b8060000151915050919050565b610bc0610c68565b6000600354905060006003819055508173ffffffffffffffffffffffffffffffffffffffff166108fc829081150290604051600060405180830381858888f19350505050158015610c15573d6000803e3d6000fd5b50610c1e610c6a565b5050565b8073ffffffffffffffffffffffffffffffffffffffff167f16d6ae18ca26331fba5a8b53b0749a009d33b172b68a49d64a767782f5b6010360405160405180910390a250565b565b565b828054828255906000526020600020908101928215610ca8579160200282015b82811115610ca7578251825591602001919060010190610c8c565b5b509050610cb59190610cda565b5090565b5080546000825590600052602060002090810190610cd79190610cf7565b50565b5b80821115610cf3576000816000905550600101610cdb565b5090565b5b80821115610d3157600080820160006101000a81549073ffffffffffffffffffffffffffffffffffffffff021916905550600101610cf8565b5090565b6000819050919050565b610d4881610d35565b82525050565b6000602082019050610d636000830184610d3f565b92915050565b6000604051905090565b600080fd5b600080fd5b610d8681610d35565b8114610d9157600080fd5b50565b600081359050610da381610d7d565b92915050565b600080fd5b6000601f19601f8301169050919050565b7f4e487b7100000000000000000000000000000000000000000000000000000000600052604160045260246000fd5b610df782610dae565b810181811067ffffffffffffffff82111715610e1657610e15610dbf565b5b80604052505050565b6000610e29610d69565b9050610e358282610dee565b919050565b600067ffffffffffffffff821115610e5557610e54610dbf565b5b602082029050602081019050919050565b600080fd5b6000610e7e610e7984610e3a565b610e1f565b90508083825260208201905060208402830185811115610ea157610ea0610e66565b5b835b81811015610eca5780610eb68882610d94565b845260208401935050602081019050610ea3565b5050509392505050565b600082601f830112610ee957610ee8610da9565b5b8135610ef9848260208601610e6b565b91505092915050565b60008060408385031215610f1957610f18610d73565b5b6000610f2785828601610d94565b925050602083013567ffffffffffffffff811115610f4857610f47610d78565b5b610f5485828601610ed4565b9150509250929050565b600063ffffffff82169050919050565b610f7781610f5e565b82525050565b6000602082019050610f926000830184610f6e565b92915050565b600080fd5b60008083601f840112610fb357610fb2610da9565b5b8235905067ffffffffffffffff811115610fd057610fcf610f98565b5b602083019150836001820283011115610fec57610feb610e66565b5b9250929050565b6000806020838503121561100a57611009610d73565b5b600083013567ffffffffffffffff81111561102857611027610d78565b5b61103485828601610f9d565b92509250509250929050565b60008115159050919050565b61105581611040565b82525050565b600081519050919050565b600082825260208201905092915050565b60005b8381101561109557808201518184015260208101905061107a565b60008484015250505050565b60006110ac8261105b565b6110b68185611066565b93506110c6818560208601611077565b6110cf81610dae565b840191505092915050565b60006040820190506110ef600083018561104c565b818103602083015261110181846110a1565b90509392505050565b600073ffffffffffffffffffffffffffffffffffffffff82169050919050565b60006111358261110a565b9050919050565b6111458161112a565b82525050565b6000602082019050611160600083018461113c565b92915050565b60006020828403121561117c5761117b610d73565b5b600061118a84828501610d94565b91505092915050565b600061ffff82169050919050565b6111aa81611193565b82525050565b60006020820190506111c560008301846111a1565b92915050565b6000819050919050565b6111de816111cb565b82525050565b60006020820190506111f960008301846111d5565b92915050565b6112088161112a565b811461121357600080fd5b50565b600081359050611225816111ff565b92915050565b60006020828403121561124157611240610d73565b5b600061124f84828501611216565b91505092915050565b600060408201905061126d600083018561113c565b61127a602083018461113c565b9392505050565b600082825260208201905092915050565b7f4f776e61626c653a206e6577206f776e657220697320746865207a65726f206160008201527f6464726573730000000000000000000000000000000000000000000000000000602082015250565b60006112ee602683611281565b91506112f982611292565b604082019050919050565b6000602082019050818103600083015261131d816112e1565b9050919050565b7f4e487b7100000000000000000000000000000000000000000000000000000000600052601160045260246000fd5b600061135e82610d35565b915061136983610d35565b9250817fffffffffffffffffffffffffffffffffffffffffffffffffffffffffffffffff04831182151516156113a2576113a1611324565b5b828202905092915050565b7f616d6f756e742073656e74206d757374206d61746368207175616e746974792060008201527f74696d6573207072696365000000000000000000000000000000000000000000602082015250565b6000611409602b83611281565b9150611414826113ad565b604082019050919050565b60006020820190508181036000830152611438816113fc565b9050919050565b600061144a82610d35565b915061145583610d35565b925082820190508082111561146d5761146c611324565b5b92915050565b600061147e82610d35565b91507fffffffffffffffffffffffffffffffffffffffffffffffffffffffffffffffff82036114b0576114af611324565b5b600182019050919050565b60006114c682610d35565b91506114d183610d35565b92508282039050818111156114e9576114e8611324565b5b92915050565b7f4f776e61626c653a2063616c6c6572206973206e6f7420746865206f776e6572600082015250565b6000611525602083611281565b9150611530826114ef565b602082019050919050565b6000602082019050818103600083015261155481611518565b9050919050565b600067ffffffffffffffff82169050919050565b6115788161155b565b82525050565b600060a08201905061159360008301886111d5565b6115a0602083018761156f565b6115ad60408301866111a1565b6115ba6060830185610f6e565b6115c76080830184610f6e565b9695505050505050565b6000815190506115e081610d7d565b92915050565b6000602082840312156115fc576115fb610d73565b5b600061160a848285016115d1565b91505092915050565b7f77696e6e6572206f7574206f6620626f756e6473000000000000000000000000600082015250565b6000611649601483611281565b915061165482611613565b602082019050919050565b600060208201905081810360008301526116788161163c565b9050919050565b7f4e487b7100000000000000000000000000000000000000000000000000000000600052603260045260246000fdfea26469706673582212208c5bcfd0c6b25b412f632997c99e4065cc9338a2d8c8b7e181b09aba37124a8564736f6c63430008100033",
  "linkReferences": {},
  "deployedLinkReferences": {}
}