{
  "_format": "hh-sol-artifact-1",
  "contractName": "AutomatedVRFRaffle",
  "sourceName": "contracts/presets/AutomatedVRFRaffle.sol",
  "abi": [
    {
      "inputs": [
        {
          "internalType": "uint256",
          "name": "raffleInterval_",
          "type": "uint256"
        },
        {
          "internalType": "uint256",
          "name": "entryCost_",
          "type": "uint256"
        },
        {
          "internalType": "uint64",
          "name": "subscriptionId_",
          "type": "uint64"
        },
        {
          "internalType": "address",
          "name": "vrfCoordinator_",
          "type": "address"
        },
        {
          "internalType": "bytes32",
          "name": "gasLane_",
          "type": "bytes32"
        }
      ],
      "stateMutability": "nonpayable",
      "type": "constructor"
    },
    {
      "inputs": [
        {
          "internalType": "address",
          "name": "have",
          "type": "address"
        },
        {
          "internalType": "address",
          "name": "want",
          "type": "address"
        }
      ],
      "name": "OnlyCoordinatorCanFulfill",
      "type": "error"
    },
    {
      "anonymous": false,
      "inputs": [
        {
          "indexed": true,
          "internalType": "address",
          "name": "previousOwner",
          "type": "address"
        },
        {
          "indexed": true,
          "internalType": "address",
          "name": "newOwner",
          "type": "address"
        }
      ],
      "name": "OwnershipTransferred",
      "type": "event"
    },
    {
      "anonymous": false,
      "inputs": [
        {
          "indexed": true,
          "internalType": "address",
          "name": "purchaser",
          "type": "address"
        },
        {
          "indexed": false,
          "internalType": "uint256",
          "name": "quantity",
          "type": "uint256"
        }
      ],
      "name": "RaffleEntry",
      "type": "event"
    },
    {
      "anonymous": false,
      "inputs": [
        {
          "indexed": true,
          "internalType": "address",
          "name": "winner",
          "type": "address"
        }
      ],
      "name": "RaffleWinner",
      "type": "event"
    },
    {
      "stateMutability": "payable",
      "type": "fallback"
    },
    {
      "inputs": [],
      "name": "balance",
      "outputs": [
        {
          "internalType": "uint256",
          "name": "",
          "type": "uint256"
        }
      ],
      "stateMutability": "view",
      "type": "function"
    },
    {
      "inputs": [],
      "name": "callbackGasLimit",
      "outputs": [
        {
          "internalType": "uint32",
          "name": "",
          "type": "uint32"
        }
      ],
      "stateMutability": "view",
      "type": "function"
    },
    {
      "inputs": [
        {
          "internalType": "bytes",
          "name": "",
          "type": "bytes"
        }
      ],
      "name": "checkUpkeep",
      "outputs": [
        {
          "internalType": "bool",
          "name": "upkeepNeeded",
          "type": "bool"
        },
        {
          "internalType": "bytes",
          "name": "",
          "type": "bytes"
        }
      ],
      "stateMutability": "view",
      "type": "function"
    },
    {
      "inputs": [
        {
          "internalType": "uint256",
          "name": "qnty",
          "type": "uint256"
        }
      ],
      "name": "enter",
      "outputs": [],
      "stateMutability": "payable",
      "type": "function"
    },
    {
      "inputs": [],
      "name": "entryCount",
      "outputs": [
        {
          "internalType": "uint256",
          "name": "",
          "type": "uint256"
        }
      ],
      "stateMutability": "view",
      "type": "function"
    },
    {
      "inputs": [],
      "name": "gasLane",
      "outputs": [
        {
          "internalType": "bytes32",
          "name": "",
          "type": "bytes32"
        }
      ],
      "stateMutability": "view",
      "type": "function"
    },
    {
      "inputs": [],
      "name": "interval",
      "outputs": [
        {
          "internalType": "uint256",
          "name": "",
          "type": "uint256"
        }
      ],
      "stateMutability": "view",
      "type": "function"
    },
    {
      "inputs": [],
      "name": "lastRafflePick",
      "outputs": [
        {
          "internalType": "uint256",
          "name": "",
          "type": "uint256"
        }
      ],
      "stateMutability": "view",
      "type": "function"
    },
    {
      "inputs": [],
      "name": "owner",
      "outputs": [
        {
          "internalType": "address",
          "name": "",
          "type": "address"
        }
      ],
      "stateMutability": "view",
      "type": "function"
    },
    {
      "inputs": [
        {
          "internalType": "bytes",
          "name": "",
          "type": "bytes"
        }
      ],
      "name": "performUpkeep",
      "outputs": [],
      "stateMutability": "nonpayable",
      "type": "function"
    },
    {
      "inputs": [],
      "name": "price",
      "outputs": [
        {
          "internalType": "uint256",
          "name": "",
          "type": "uint256"
        }
      ],
      "stateMutability": "view",
      "type": "function"
    },
    {
      "inputs": [
        {
          "internalType": "uint256",
          "name": "",
          "type": "uint256"
        }
      ],
      "name": "randomWords",
      "outputs": [
        {
          "internalType": "uint256",
          "name": "",
          "type": "uint256"
        }
      ],
      "stateMutability": "view",
      "type": "function"
    },
    {
      "inputs": [
        {
          "internalType": "uint256",
          "name": "requestId",
          "type": "uint256"
        },
        {
          "internalType": "uint256[]",
          "name": "randomWords",
          "type": "uint256[]"
        }
      ],
      "name": "rawFulfillRandomWords",
      "outputs": [],
      "stateMutability": "nonpayable",
      "type": "function"
    },
    {
      "inputs": [],
      "name": "renounceOwnership",
      "outputs": [],
      "stateMutability": "nonpayable",
      "type": "function"
    },
    {
      "inputs": [],
      "name": "requestConfirmations",
      "outputs": [
        {
          "internalType": "uint16",
          "name": "",
          "type": "uint16"
        }
      ],
      "stateMutability": "view",
      "type": "function"
    },
    {
      "inputs": [],
      "name": "requestId",
      "outputs": [
        {
          "internalType": "uint256",
          "name": "",
          "type": "uint256"
        }
      ],
      "stateMutability": "view",
      "type": "function"
    },
    {
      "inputs": [
        {
          "internalType": "address",
          "name": "newOwner",
          "type": "address"
        }
      ],
      "name": "transferOwnership",
      "outputs": [],
      "stateMutability": "nonpayable",
      "type": "function"
    },
    {
      "inputs": [],
      "name": "vrfCoordinator",
      "outputs": [
        {
          "internalType": "address",
          "name": "",
          "type": "address"
        }
      ],
      "stateMutability": "view",
      "type": "function"
    },
    {
      "stateMutability": "payable",
      "type": "receive"
    }
  ],
  "bytecode": "0x60a060405260016005601c6101000a81548163ffffffff021916908363ffffffff1602179055506003600960006101000a81548161ffff021916908361ffff160217905550620186a0600960026101000a81548163ffffffff021916908363ffffffff1602179055503480156200007557600080fd5b5060405162001a4d38038062001a4d83398181016040528101906200009b919062000386565b82828281620000bf620000b36200018b60201b60201c565b6200019360201b60201c565b8073ffffffffffffffffffffffffffffffffffffffff1660808173ffffffffffffffffffffffffffffffffffffffff16815250505082600560146101000a81548167ffffffffffffffff021916908367ffffffffffffffff16021790555081600760006101000a81548173ffffffffffffffffffffffffffffffffffffffff021916908373ffffffffffffffffffffffffffffffffffffffff160217905550806008819055505050508360048190555062000180856200025760201b60201c565b50505050506200040e565b600033905090565b60008060009054906101000a900473ffffffffffffffffffffffffffffffffffffffff169050816000806101000a81548173ffffffffffffffffffffffffffffffffffffffff021916908373ffffffffffffffffffffffffffffffffffffffff1602179055508173ffffffffffffffffffffffffffffffffffffffff168173ffffffffffffffffffffffffffffffffffffffff167f8be0079c531659141344cd1fd0a4f28419497f9722a3daafe3b4186f6b6457e060405160405180910390a35050565b80600b8190555050565b600080fd5b6000819050919050565b6200027b8162000266565b81146200028757600080fd5b50565b6000815190506200029b8162000270565b92915050565b600067ffffffffffffffff82169050919050565b620002c081620002a1565b8114620002cc57600080fd5b50565b600081519050620002e081620002b5565b92915050565b600073ffffffffffffffffffffffffffffffffffffffff82169050919050565b60006200031382620002e6565b9050919050565b620003258162000306565b81146200033157600080fd5b50565b60008151905062000345816200031a565b92915050565b6000819050919050565b62000360816200034b565b81146200036c57600080fd5b50565b600081519050620003808162000355565b92915050565b600080600080600060a08688031215620003a557620003a462000261565b5b6000620003b5888289016200028a565b9550506020620003c8888289016200028a565b9450506040620003db88828901620002cf565b9350506060620003ee8882890162000334565b925050608062000401888289016200036f565b9150509295509295909350565b60805161161c620004316000396000818161045501526104a9015261161c6000f3fe60806040526004361061010c5760003560e01c8063a035b1fe11610095578063b0fb162f11610064578063b0fb162f14610344578063b69ef8a81461036f578063beff730f1461039a578063ddb6facc146103d7578063f2fde38b146104025761011d565b8063a035b1fe146102a7578063a3e56fa8146102d2578063a59f3e0c146102fd578063a6226e8e146103195761011d565b80634585e33b116100dc5780634585e33b146101d35780636e04ff0d146101fc578063715018a61461023a5780638da5cb5b14610251578063947a36fb1461027c5761011d565b80626d6cae146101295780630cbb0f83146101545780631fe543e31461017f57806324f74697146101a85761011d565b3661011d5761011b600161042b565b005b610127600161042b565b005b34801561013557600080fd5b5061013e610440565b60405161014b9190610d18565b60405180910390f35b34801561016057600080fd5b50610169610446565b6040516101769190610d18565b60405180910390f35b34801561018b57600080fd5b506101a660048036038101906101a19190610ecc565b610453565b005b3480156101b457600080fd5b506101bd610513565b6040516101ca9190610f47565b60405180910390f35b3480156101df57600080fd5b506101fa60048036038101906101f59190610fbd565b610529565b005b34801561020857600080fd5b50610223600480360381019061021e9190610fbd565b610543565b6040516102319291906110a4565b60405180910390f35b34801561024657600080fd5b5061024f610558565b005b34801561025d57600080fd5b5061026661056c565b6040516102739190611115565b60405180910390f35b34801561028857600080fd5b50610291610595565b60405161029e9190610d18565b60405180910390f35b3480156102b357600080fd5b506102bc61059b565b6040516102c99190610d18565b60405180910390f35b3480156102de57600080fd5b506102e76105a1565b6040516102f49190611115565b60405180910390f35b61031760048036038101906103129190611130565b6105c7565b005b34801561032557600080fd5b5061032e6105d3565b60405161033b9190610d18565b60405180910390f35b34801561035057600080fd5b506103596105d9565b604051610366919061117a565b60405180910390f35b34801561037b57600080fd5b506103846105ed565b6040516103919190610d18565b60405180910390f35b3480156103a657600080fd5b506103c160048036038101906103bc9190611130565b6105f3565b6040516103ce9190610d18565b60405180910390f35b3480156103e357600080fd5b506103ec610617565b6040516103f991906111ae565b60405180910390f35b34801561040e57600080fd5b50610429600480360381019061042491906111f5565b61061d565b005b610434816106a0565b61043d816106d5565b50565b60065481565b6000600280549050905090565b7f000000000000000000000000000000000000000000000000000000000000000073ffffffffffffffffffffffffffffffffffffffff163373ffffffffffffffffffffffffffffffffffffffff161461050557337f00000000000000000000000000000000000000000000000000000000000000006040517f1cf993f40000000000000000000000000000000000000000000000000000000081526004016104fc929190611222565b60405180910390fd5b61050f82826107da565b5050565b600960029054906101000a900463ffffffff1681565b610531610801565b1561053f5761053e61081a565b5b5050565b6000606061054f610801565b91509250929050565b610560610824565b61056a60006108a2565b565b60008060009054906101000a900473ffffffffffffffffffffffffffffffffffffffff16905090565b600b5481565b60045481565b600760009054906101000a900473ffffffffffffffffffffffffffffffffffffffff1681565b6105d08161042b565b50565b600c5481565b600960009054906101000a900461ffff1681565b60035481565b600a818154811061060357600080fd5b906000526020600020016000915090505481565b60085481565b610625610824565b600073ffffffffffffffffffffffffffffffffffffffff168173ffffffffffffffffffffffffffffffffffffffff1603610694576040517f08c379a000000000000000000000000000000000000000000000000000000000815260040161068b906112ce565b60405180910390fd5b61069d816108a2565b50565b600454816106ae919061131d565b34146106b957600080fd5b34600360008282546106cb9190611377565b9250508190555050565b60005b8181101561078857600260405180602001604052803373ffffffffffffffffffffffffffffffffffffffff168152509080600181540180825580915050600190039060005260206000200160009091909190915060008201518160000160006101000a81548173ffffffffffffffffffffffffffffffffffffffff021916908373ffffffffffffffffffffffffffffffffffffffff16021790555050508080610780906113ab565b9150506106d8565b503373ffffffffffffffffffffffffffffffffffffffff167f412ce78c3d80a4d700404d6b23bd33bc193f83ac3caeefb9cdd3003aceb09f6a826040516107cf9190610d18565b60405180910390a250565b80600a90805190602001906107f0929190610c36565b5060006107fc81610966565b505050565b6000600b54600c544261081491906113f3565b11905090565b610822610980565b565b61082c610a7a565b73ffffffffffffffffffffffffffffffffffffffff1661084a61056c565b73ffffffffffffffffffffffffffffffffffffffff16146108a0576040517f08c379a000000000000000000000000000000000000000000000000000000000815260040161089790611473565b60405180910390fd5b565b60008060009054906101000a900473ffffffffffffffffffffffffffffffffffffffff169050816000806101000a81548173ffffffffffffffffffffffffffffffffffffffff021916908373ffffffffffffffffffffffffffffffffffffffff1602179055508173ffffffffffffffffffffffffffffffffffffffff168173ffffffffffffffffffffffffffffffffffffffff167f8be0079c531659141344cd1fd0a4f28419497f9722a3daafe3b4186f6b6457e060405160405180910390a35050565b600061097182610a82565b905061097c81610b82565b5050565b600560009054906101000a900473ffffffffffffffffffffffffffffffffffffffff1673ffffffffffffffffffffffffffffffffffffffff16635d3b1d30600854600560149054906101000a900467ffffffffffffffff16600960009054906101000a900461ffff16600960029054906101000a900463ffffffff166005601c9054906101000a900463ffffffff166040518663ffffffff1660e01b8152600401610a2f9594939291906114b6565b6020604051808303816000875af1158015610a4e573d6000803e3d6000fd5b505050506040513d601f19601f82011682018060405250810190610a72919061151e565b600681905550565b600033905090565b6000808210158015610a98575060028054905082105b610ad7576040517f08c379a0000000000000000000000000000000000000000000000000000000008152600401610ace90611597565b60405180910390fd5b600060028381548110610aed57610aec6115b7565b5b906000526020600020016040518060200160405290816000820160009054906101000a900473ffffffffffffffffffffffffffffffffffffffff1673ffffffffffffffffffffffffffffffffffffffff1673ffffffffffffffffffffffffffffffffffffffff1681525050905060026000610b689190610c83565b610b758160000151610bec565b8060000151915050919050565b610b8a610c32565b6000600354905060006003819055508173ffffffffffffffffffffffffffffffffffffffff166108fc829081150290604051600060405180830381858888f19350505050158015610bdf573d6000803e3d6000fd5b50610be8610c34565b5050565b8073ffffffffffffffffffffffffffffffffffffffff167f16d6ae18ca26331fba5a8b53b0749a009d33b172b68a49d64a767782f5b6010360405160405180910390a250565b565b565b828054828255906000526020600020908101928215610c72579160200282015b82811115610c71578251825591602001919060010190610c56565b5b509050610c7f9190610ca4565b5090565b5080546000825590600052602060002090810190610ca19190610cc1565b50565b5b80821115610cbd576000816000905550600101610ca5565b5090565b5b80821115610cfb57600080820160006101000a81549073ffffffffffffffffffffffffffffffffffffffff021916905550600101610cc2565b5090565b6000819050919050565b610d1281610cff565b82525050565b6000602082019050610d2d6000830184610d09565b92915050565b6000604051905090565b600080fd5b600080fd5b610d5081610cff565b8114610d5b57600080fd5b50565b600081359050610d6d81610d47565b92915050565b600080fd5b6000601f19601f8301169050919050565b7f4e487b7100000000000000000000000000000000000000000000000000000000600052604160045260246000fd5b610dc182610d78565b810181811067ffffffffffffffff82111715610de057610ddf610d89565b5b80604052505050565b6000610df3610d33565b9050610dff8282610db8565b919050565b600067ffffffffffffffff821115610e1f57610e1e610d89565b5b602082029050602081019050919050565b600080fd5b6000610e48610e4384610e04565b610de9565b90508083825260208201905060208402830185811115610e6b57610e6a610e30565b5b835b81811015610e945780610e808882610d5e565b845260208401935050602081019050610e6d565b5050509392505050565b600082601f830112610eb357610eb2610d73565b5b8135610ec3848260208601610e35565b91505092915050565b60008060408385031215610ee357610ee2610d3d565b5b6000610ef185828601610d5e565b925050602083013567ffffffffffffffff811115610f1257610f11610d42565b5b610f1e85828601610e9e565b9150509250929050565b600063ffffffff82169050919050565b610f4181610f28565b82525050565b6000602082019050610f5c6000830184610f38565b92915050565b600080fd5b60008083601f840112610f7d57610f7c610d73565b5b8235905067ffffffffffffffff811115610f9a57610f99610f62565b5b602083019150836001820283011115610fb657610fb5610e30565b5b9250929050565b60008060208385031215610fd457610fd3610d3d565b5b600083013567ffffffffffffffff811115610ff257610ff1610d42565b5b610ffe85828601610f67565b92509250509250929050565b60008115159050919050565b61101f8161100a565b82525050565b600081519050919050565b600082825260208201905092915050565b60005b8381101561105f578082015181840152602081019050611044565b60008484015250505050565b600061107682611025565b6110808185611030565b9350611090818560208601611041565b61109981610d78565b840191505092915050565b60006040820190506110b96000830185611016565b81810360208301526110cb818461106b565b90509392505050565b600073ffffffffffffffffffffffffffffffffffffffff82169050919050565b60006110ff826110d4565b9050919050565b61110f816110f4565b82525050565b600060208201905061112a6000830184611106565b92915050565b60006020828403121561114657611145610d3d565b5b600061115484828501610d5e565b91505092915050565b600061ffff82169050919050565b6111748161115d565b82525050565b600060208201905061118f600083018461116b565b92915050565b6000819050919050565b6111a881611195565b82525050565b60006020820190506111c3600083018461119f565b92915050565b6111d2816110f4565b81146111dd57600080fd5b50565b6000813590506111ef816111c9565b92915050565b60006020828403121561120b5761120a610d3d565b5b6000611219848285016111e0565b91505092915050565b60006040820190506112376000830185611106565b6112446020830184611106565b9392505050565b600082825260208201905092915050565b7f4f776e61626c653a206e6577206f776e657220697320746865207a65726f206160008201527f6464726573730000000000000000000000000000000000000000000000000000602082015250565b60006112b860268361124b565b91506112c38261125c565b604082019050919050565b600060208201905081810360008301526112e7816112ab565b9050919050565b7f4e487b7100000000000000000000000000000000000000000000000000000000600052601160045260246000fd5b600061132882610cff565b915061133383610cff565b9250817fffffffffffffffffffffffffffffffffffffffffffffffffffffffffffffffff048311821515161561136c5761136b6112ee565b5b828202905092915050565b600061138282610cff565b915061138d83610cff565b92508282019050808211156113a5576113a46112ee565b5b92915050565b60006113b682610cff565b91507fffffffffffffffffffffffffffffffffffffffffffffffffffffffffffffffff82036113e8576113e76112ee565b5b600182019050919050565b60006113fe82610cff565b915061140983610cff565b9250828203905081811115611421576114206112ee565b5b92915050565b7f4f776e61626c653a2063616c6c6572206973206e6f7420746865206f776e6572600082015250565b600061145d60208361124b565b915061146882611427565b602082019050919050565b6000602082019050818103600083015261148c81611450565b9050919050565b600067ffffffffffffffff82169050919050565b6114b081611493565b82525050565b600060a0820190506114cb600083018861119f565b6114d860208301876114a7565b6114e5604083018661116b565b6114f26060830185610f38565b6114ff6080830184610f38565b9695505050505050565b60008151905061151881610d47565b92915050565b60006020828403121561153457611533610d3d565b5b600061154284828501611509565b91505092915050565b7f77696e6e6572206f7574206f6620626f756e6473000000000000000000000000600082015250565b600061158160148361124b565b915061158c8261154b565b602082019050919050565b600060208201905081810360008301526115b081611574565b9050919050565b7f4e487b7100000000000000000000000000000000000000000000000000000000600052603260045260246000fdfea264697066735822122030d0cce8691f4a23fb77ebf15613177a9ad8dc6cdee3f1a7215872990d22a40b64736f6c63430008100033",
  "linkReferences": {},
  "deployedLinkReferences": {}
}